{
  "contractName": "HomeTransaction",
  "abi": [
    {
      "inputs": [
        {
          "internalType": "string",
          "name": "_address",
          "type": "string"
        },
        {
          "internalType": "string",
          "name": "_zip",
          "type": "string"
        },
        {
          "internalType": "string",
          "name": "_city",
          "type": "string"
        },
        {
          "internalType": "string",
          "name": "_observacions",
          "type": "string"
        },
        {
          "internalType": "uint256",
          "name": "_realtorFee",
          "type": "uint256"
        },
        {
          "internalType": "uint256",
          "name": "_price",
          "type": "uint256"
        },
        {
          "internalType": "uint256",
          "name": "_conversor",
          "type": "uint256"
        },
        {
          "internalType": "address payable",
          "name": "_realtor",
          "type": "address"
        },
        {
          "internalType": "address payable",
          "name": "_seller",
          "type": "address"
        },
        {
          "internalType": "address payable",
          "name": "_buyer",
          "type": "address"
        }
      ],
      "payable": false,
      "stateMutability": "nonpayable",
      "type": "constructor"
    },
    {
      "anonymous": false,
      "inputs": [
        {
          "indexed": false,
          "internalType": "string",
          "name": "content_contracte",
          "type": "string"
        },
        {
          "indexed": false,
          "internalType": "address",
          "name": "address_contracte",
          "type": "address"
        }
      ],
      "name": "ContracteSignatVenedor",
      "type": "event"
    },
    {
      "constant": true,
      "inputs": [],
      "name": "buyer",
      "outputs": [
        {
          "internalType": "address payable",
          "name": "",
          "type": "address"
        }
      ],
      "payable": false,
      "stateMutability": "view",
      "type": "function"
    },
    {
      "constant": true,
      "inputs": [],
      "name": "city",
      "outputs": [
        {
          "internalType": "string",
          "name": "",
          "type": "string"
        }
      ],
      "payable": false,
      "stateMutability": "view",
      "type": "function"
    },
    {
      "constant": true,
      "inputs": [],
      "name": "contractState",
      "outputs": [
        {
          "internalType": "enum HomeTransaction.ContractState",
          "name": "",
          "type": "uint8"
        }
      ],
      "payable": false,
      "stateMutability": "view",
      "type": "function"
    },
    {
      "constant": true,
      "inputs": [],
      "name": "conversor",
      "outputs": [
        {
          "internalType": "uint256",
          "name": "",
          "type": "uint256"
        }
      ],
      "payable": false,
      "stateMutability": "view",
      "type": "function"
    },
    {
      "constant": true,
      "inputs": [],
      "name": "deposit",
      "outputs": [
        {
          "internalType": "uint256",
          "name": "",
          "type": "uint256"
        }
      ],
      "payable": false,
      "stateMutability": "view",
      "type": "function"
    },
    {
      "constant": true,
      "inputs": [],
      "name": "finalizeDeadline",
      "outputs": [
        {
          "internalType": "uint256",
          "name": "",
          "type": "uint256"
        }
      ],
      "payable": false,
      "stateMutability": "view",
      "type": "function"
    },
    {
      "constant": true,
      "inputs": [],
      "name": "homeAddress",
      "outputs": [
        {
          "internalType": "string",
          "name": "",
          "type": "string"
        }
      ],
      "payable": false,
      "stateMutability": "view",
      "type": "function"
    },
    {
      "constant": true,
      "inputs": [],
      "name": "observacions",
      "outputs": [
        {
          "internalType": "string",
          "name": "",
          "type": "string"
        }
      ],
      "payable": false,
      "stateMutability": "view",
      "type": "function"
    },
    {
      "constant": true,
      "inputs": [],
      "name": "price",
      "outputs": [
        {
          "internalType": "uint256",
          "name": "",
          "type": "uint256"
        }
      ],
      "payable": false,
      "stateMutability": "view",
      "type": "function"
    },
    {
      "constant": true,
      "inputs": [],
      "name": "realtor",
      "outputs": [
        {
          "internalType": "address payable",
          "name": "",
          "type": "address"
        }
      ],
      "payable": false,
      "stateMutability": "view",
      "type": "function"
    },
    {
      "constant": true,
      "inputs": [],
      "name": "realtorFee",
      "outputs": [
        {
          "internalType": "uint256",
          "name": "",
          "type": "uint256"
        }
      ],
      "payable": false,
      "stateMutability": "view",
      "type": "function"
    },
    {
      "constant": true,
      "inputs": [],
      "name": "seller",
      "outputs": [
        {
          "internalType": "address payable",
          "name": "",
          "type": "address"
        }
      ],
      "payable": false,
      "stateMutability": "view",
      "type": "function"
    },
    {
      "constant": true,
      "inputs": [],
      "name": "zip",
      "outputs": [
        {
          "internalType": "string",
          "name": "",
          "type": "string"
        }
      ],
      "payable": false,
      "stateMutability": "view",
      "type": "function"
    },
    {
      "constant": false,
      "inputs": [],
      "name": "sellerSignContract",
      "outputs": [],
      "payable": true,
      "stateMutability": "payable",
      "type": "function"
    },
    {
      "constant": false,
      "inputs": [],
      "name": "buyerSignContractAndPayDeposit",
      "outputs": [],
      "payable": true,
      "stateMutability": "payable",
      "type": "function"
    },
    {
      "constant": false,
      "inputs": [
        {
          "internalType": "bool",
          "name": "accepted",
          "type": "bool"
        }
      ],
      "name": "realtorReviewedClosingConditions",
      "outputs": [],
      "payable": false,
      "stateMutability": "nonpayable",
      "type": "function"
    },
    {
      "constant": false,
      "inputs": [],
      "name": "buyerFinalizeTransaction",
      "outputs": [],
      "payable": true,
      "stateMutability": "payable",
      "type": "function"
    },
    {
      "constant": false,
      "inputs": [],
      "name": "anyWithdrawFromTransaction",
      "outputs": [],
      "payable": false,
      "stateMutability": "nonpayable",
      "type": "function"
    }
  ],
  "bytecode": "0x608060405260008060006101000a81548160ff021916908360058111156200002357fe5b02179055506000600c60006101000a81548160ff021916908360028111156200004857fe5b02179055503480156200005a57600080fd5b50604051620017c4380380620017c483398181016040526101408110156200008157600080fd5b8101908080516040519392919084640100000000821115620000a257600080fd5b83820191506020820185811115620000b957600080fd5b8251866001820283011164010000000082111715620000d757600080fd5b8083526020830192505050908051906020019080838360005b838110156200010d578082015181840152602081019050620000f0565b50505050905090810190601f1680156200013b5780820380516001836020036101000a031916815260200191505b50604052602001805160405193929190846401000000008211156200015f57600080fd5b838201915060208201858111156200017657600080fd5b82518660018202830111640100000000821117156200019457600080fd5b8083526020830192505050908051906020019080838360005b83811015620001ca578082015181840152602081019050620001ad565b50505050905090810190601f168015620001f85780820380516001836020036101000a031916815260200191505b50604052602001805160405193929190846401000000008211156200021c57600080fd5b838201915060208201858111156200023357600080fd5b82518660018202830111640100000000821117156200025157600080fd5b8083526020830192505050908051906020019080838360005b83811015620002875780820151818401526020810190506200026a565b50505050905090810190601f168015620002b55780820380516001836020036101000a031916815260200191505b5060405260200180516040519392919084640100000000821115620002d957600080fd5b83820191506020820185811115620002f057600080fd5b82518660018202830111640100000000821117156200030e57600080fd5b8083526020830192505050908051906020019080838360005b838110156200034457808201518184015260208101905062000327565b50505050905090810190601f168015620003725780820380516001836020036101000a031916815260200191505b506040526020018051906020019092919080519060200190929190805190602001909291908051906020019092919080519060200190929190805190602001909291905050508585101562000413576040517f08c379a00000000000000000000000000000000000000000000000000000000081526004018080602001828103825260288152602001806200179c6028913960400191505060405180910390fd5b82600060016101000a81548173ffffffffffffffffffffffffffffffffffffffff021916908373ffffffffffffffffffffffffffffffffffffffff16021790555081600160006101000a81548173ffffffffffffffffffffffffffffffffffffffff021916908373ffffffffffffffffffffffffffffffffffffffff16021790555080600260006101000a81548173ffffffffffffffffffffffffffffffffffffffff021916908373ffffffffffffffffffffffffffffffffffffffff1602179055508960039080519060200190620004ee9291906200055f565b508860049080519060200190620005079291906200055f565b508760059080519060200190620005209291906200055f565b508660069080519060200190620005399291906200055f565b50846008819055508560078190555083600981905550505050505050505050506200060e565b828054600181600116156101000203166002900490600052602060002090601f016020900481019282601f10620005a257805160ff1916838001178555620005d3565b82800160010185558215620005d3579182015b82811115620005d2578251825591602001919060010190620005b5565b5b509050620005e29190620005e6565b5090565b6200060b91905b8082111562000607576000816000905550600101620005ed565b5090565b90565b61117e806200061e6000396000f3fe6080604052600436106101085760003560e01c80637150d8ae11610095578063a0cb23cd11610064578063a0cb23cd14610447578063ba0892d914610472578063d0e30db014610489578063f629ad30146104b4578063fd0160fe1461054457610108565b80637150d8ae1461036157806385209ee0146103b8578063968e28e8146103f1578063a035b1fe1461041c57610108565b80633e23b9f9116100dc5780633e23b9f914610208578063436527451461025f5780634aac27791461028a5780634ed523e91461031a5780636b0ccb761461032457610108565b80629190551461010d57806308551a531461019d57806318be633f146101f45780632323f8f5146101fe575b600080fd5b34801561011957600080fd5b506101226105d4565b6040518080602001828103825283818151815260200191508051906020019080838360005b83811015610162578082015181840152602081019050610147565b50505050905090810190601f16801561018f5780820380516001836020036101000a031916815260200191505b509250505060405180910390f35b3480156101a957600080fd5b506101b2610672565b604051808273ffffffffffffffffffffffffffffffffffffffff1673ffffffffffffffffffffffffffffffffffffffff16815260200191505060405180910390f35b6101fc610698565b005b610206610868565b005b34801561021457600080fd5b5061021d610a01565b604051808273ffffffffffffffffffffffffffffffffffffffff1673ffffffffffffffffffffffffffffffffffffffff16815260200191505060405180910390f35b34801561026b57600080fd5b50610274610a27565b6040518082815260200191505060405180910390f35b34801561029657600080fd5b5061029f610a2d565b6040518080602001828103825283818151815260200191508051906020019080838360005b838110156102df5780820151818401526020810190506102c4565b50505050905090810190601f16801561030c5780820380516001836020036101000a031916815260200191505b509250505060405180910390f35b610322610acb565b005b34801561033057600080fd5b5061035f6004803603602081101561034757600080fd5b81019080803515159060200190929190505050610b9c565b005b34801561036d57600080fd5b50610376610d3e565b604051808273ffffffffffffffffffffffffffffffffffffffff1673ffffffffffffffffffffffffffffffffffffffff16815260200191505060405180910390f35b3480156103c457600080fd5b506103cd610d64565b604051808260058111156103dd57fe5b60ff16815260200191505060405180910390f35b3480156103fd57600080fd5b50610406610d76565b6040518082815260200191505060405180910390f35b34801561042857600080fd5b50610431610d7c565b6040518082815260200191505060405180910390f35b34801561045357600080fd5b5061045c610d82565b6040518082815260200191505060405180910390f35b34801561047e57600080fd5b50610487610d88565b005b34801561049557600080fd5b5061049e610fd4565b6040518082815260200191505060405180910390f35b3480156104c057600080fd5b506104c9610fda565b6040518080602001828103825283818151815260200191508051906020019080838360005b838110156105095780820151818401526020810190506104ee565b50505050905090810190601f1680156105365780820380516001836020036101000a031916815260200191505b509250505060405180910390f35b34801561055057600080fd5b50610559611078565b6040518080602001828103825283818151815260200191508051906020019080838360005b8381101561059957808201518184015260208101905061057e565b50505050905090810190601f1680156105c65780820380516001836020036101000a031916815260200191505b509250505060405180910390f35b60048054600181600116156101000203166002900480601f01602080910402602001604051908101604052809291908181526020018280546001816001161561010002031660029004801561066a5780601f1061063f5761010080835404028352916020019161066a565b820191906000526020600020905b81548152906001019060200180831161064d57829003601f168201915b505050505081565b600160009054906101000a900473ffffffffffffffffffffffffffffffffffffffff1681565b600060058111156106a557fe5b6000809054906101000a900460ff1660058111156106bf57fe5b14610732576040517f08c379a00000000000000000000000000000000000000000000000000000000081526004018080602001828103825260148152602001807f57726f6e6720636f6e747261637420737461746500000000000000000000000081525060200191505060405180910390fd5b60016000806101000a81548160ff0219169083600581111561075057fe5b0217905550600030905060606040518060400160405280601c81526020017f436f6e747261637465207369676e61742070656c2076656e65646f720000000081525090507f6b8fd09b488e9c40b5431455578d9f529daa7b5098d16e4a6040d73689ff2ebe818360405180806020018373ffffffffffffffffffffffffffffffffffffffff1673ffffffffffffffffffffffffffffffffffffffff168152602001828103825284818151815260200191508051906020019080838360005b8381101561082957808201518184015260208101905061080e565b50505050905090810190601f1680156108565780820380516001836020036101000a031916815260200191505b50935050505060405180910390a15050565b6003600581111561087557fe5b6000809054906101000a900460ff16600581111561088f57fe5b14610902576040517f08c379a00000000000000000000000000000000000000000000000000000000081526004018080602001828103825260148152602001807f57726f6e6720636f6e747261637420737461746500000000000000000000000081525060200191505060405180910390fd5b60046000806101000a81548160ff0219169083600581111561092057fe5b0217905550600160009054906101000a900473ffffffffffffffffffffffffffffffffffffffff1673ffffffffffffffffffffffffffffffffffffffff166108fc600754600854039081150290604051600060405180830381858888f19350505050158015610993573d6000803e3d6000fd5b50600060019054906101000a900473ffffffffffffffffffffffffffffffffffffffff1673ffffffffffffffffffffffffffffffffffffffff166108fc6007549081150290604051600060405180830381858888f193505050501580156109fe573d6000803e3d6000fd5b50565b600060019054906101000a900473ffffffffffffffffffffffffffffffffffffffff1681565b60095481565b60068054600181600116156101000203166002900480601f016020809104026020016040519081016040528092919081815260200182805460018160011615610100020316600290048015610ac35780601f10610a9857610100808354040283529160200191610ac3565b820191906000526020600020905b815481529060010190602001808311610aa657829003601f168201915b505050505081565b60016005811115610ad857fe5b6000809054906101000a900460ff166005811115610af257fe5b14610b65576040517f08c379a00000000000000000000000000000000000000000000000000000000081526004018080602001828103825260148152602001807f57726f6e6720636f6e747261637420737461746500000000000000000000000081525060200191505060405180910390fd5b60026000806101000a81548160ff02191690836005811115610b8357fe5b021790555034600a8190555061012c4201600b81905550565b60026005811115610ba957fe5b6000809054906101000a900460ff166005811115610bc357fe5b14610c36576040517f08c379a00000000000000000000000000000000000000000000000000000000081526004018080602001828103825260148152602001807f57726f6e6720636f6e747261637420737461746500000000000000000000000081525060200191505060405180910390fd5b8015610c88576001600c60006101000a81548160ff02191690836002811115610c5b57fe5b021790555060036000806101000a81548160ff02191690836005811115610c7e57fe5b0217905550610d3b565b6002600c60006101000a81548160ff02191690836002811115610ca757fe5b021790555060056000806101000a81548160ff02191690836005811115610cca57fe5b0217905550600260009054906101000a900473ffffffffffffffffffffffffffffffffffffffff1673ffffffffffffffffffffffffffffffffffffffff166108fc600a549081150290604051600060405180830381858888f19350505050158015610d39573d6000803e3d6000fd5b505b50565b600260009054906101000a900473ffffffffffffffffffffffffffffffffffffffff1681565b6000809054906101000a900460ff1681565b60075481565b60085481565b600b5481565b3373ffffffffffffffffffffffffffffffffffffffff16600260009054906101000a900473ffffffffffffffffffffffffffffffffffffffff1673ffffffffffffffffffffffffffffffffffffffff161480610de6575042600b5411155b610e3b576040517f08c379a00000000000000000000000000000000000000000000000000000000081526004018080602001828103825260338152602001806111176033913960400191505060405180910390fd5b60036005811115610e4857fe5b6000809054906101000a900460ff166005811115610e6257fe5b14610ed5576040517f08c379a00000000000000000000000000000000000000000000000000000000081526004018080602001828103825260148152602001807f57726f6e6720636f6e747261637420737461746500000000000000000000000081525060200191505060405180910390fd5b60056000806101000a81548160ff02191690836005811115610ef357fe5b0217905550600160009054906101000a900473ffffffffffffffffffffffffffffffffffffffff1673ffffffffffffffffffffffffffffffffffffffff166108fc600754600a54039081150290604051600060405180830381858888f19350505050158015610f66573d6000803e3d6000fd5b50600060019054906101000a900473ffffffffffffffffffffffffffffffffffffffff1673ffffffffffffffffffffffffffffffffffffffff166108fc6007549081150290604051600060405180830381858888f19350505050158015610fd1573d6000803e3d6000fd5b50565b600a5481565b60038054600181600116156101000203166002900480601f0160208091040260200160405190810160405280929190818152602001828054600181600116156101000203166002900480156110705780601f1061104557610100808354040283529160200191611070565b820191906000526020600020905b81548152906001019060200180831161105357829003601f168201915b505050505081565b60058054600181600116156101000203166002900480601f01602080910402602001604051908101604052809291908181526020018280546001816001161561010002031660029004801561110e5780601f106110e35761010080835404028352916020019161110e565b820191906000526020600020905b8154815290600101906020018083116110f157829003601f168201915b50505050508156fe4f6e6c792062757965722063616e207769746864726177206265666f7265207472616e73616374696f6e20646561646c696e65a265627a7a723158206e2bc23a30e0974c1c536d9e79705262b5871c01ddfda5dff9b6b0666d49c05364736f6c634300051000325072696365206e6565647320746f206265206d6f7265207468616e207265616c746f722066656521",
  "source": "// SPDX-License-Identifier: MIT\r\npragma solidity >=0.4.25 <0.9.0;\r\n\r\ncontract HomeTransaction {\r\n    // Constants\r\n    uint256 constant timeBetweenDepositAndFinalization = 5 minutes;\r\n    uint256 constant depositPercentage = 10;\r\n\r\n    event ContracteSignatVenedor(\r\n        string content_contracte, \r\n        address address_contracte\r\n        );\r\n\r\n    enum ContractState {\r\n        WaitingSellerSignature,\r\n        WaitingBuyerSignature,\r\n        WaitingRealtorReview,\r\n        WaitingFinalization,\r\n        Finalized,\r\n        Rejected\r\n    }\r\n    ContractState public contractState = ContractState.WaitingSellerSignature;\r\n\r\n    // Roles acting on contract\r\n    address payable public realtor;\r\n    address payable public seller;\r\n    address payable public buyer;\r\n\r\n    // Contract details\r\n    string public homeAddress;\r\n    string public zip;\r\n    string public city;\r\n    string public observacions;\r\n    uint256 public realtorFee;\r\n    uint256 public price;\r\n    uint256 public conversor;\r\n\r\n    // Set when buyer signs and pays deposit\r\n    uint256 public deposit;\r\n    uint256 public finalizeDeadline;\r\n\r\n    // Set when realtor reviews closing conditions\r\n    enum ClosingConditionsReview {Pending, Accepted, Rejected}\r\n    ClosingConditionsReview closingConditionsReview =\r\n        ClosingConditionsReview.Pending;\r\n\r\n    constructor(\r\n        string memory _address,\r\n        string memory _zip,\r\n        string memory _city,\r\n        string memory _observacions,\r\n        uint256 _realtorFee,\r\n        uint256 _price,\r\n        uint256 _conversor,\r\n        address payable _realtor,\r\n        address payable _seller,\r\n        address payable _buyer\r\n    ) public {\r\n        require(\r\n            _price >= _realtorFee,\r\n            \"Price needs to be more than realtor fee!\"\r\n        );\r\n\r\n        realtor = _realtor;\r\n        seller = _seller;\r\n        buyer = _buyer;\r\n        homeAddress = _address;\r\n        zip = _zip;\r\n        city = _city;\r\n        observacions = _observacions;\r\n        price = _price;\r\n        realtorFee = _realtorFee;\r\n        conversor = _conversor;\r\n    }\r\n\r\n    function sellerSignContract() public payable {\r\n        // require(seller == msg.sender, \"Only seller can sign contract\");\r\n\r\n        require(\r\n            contractState == ContractState.WaitingSellerSignature,\r\n            \"Wrong contract state\"\r\n        );\r\n\r\n        contractState = ContractState.WaitingBuyerSignature;\r\n        address _address_contracte= address(this);\r\n        string memory _content_contracte=\"Contracte signat pel venedor\";\r\n        emit ContracteSignatVenedor(_content_contracte, _address_contracte);        \r\n    }\r\n\r\n    function buyerSignContractAndPayDeposit() public payable {\r\n        //  require(buyer == msg.sender, \"Only buyer can sign contract\");\r\n\r\n        require(\r\n            contractState == ContractState.WaitingBuyerSignature,\r\n            \"Wrong contract state\"\r\n        );\r\n\r\n        //  require(msg.value >= price*depositPercentage/100 && msg.value <= price, \"Buyer needs to deposit between 10% and 100% to sign contract\");\r\n\r\n        contractState = ContractState.WaitingRealtorReview;\r\n\r\n        deposit = msg.value;\r\n        finalizeDeadline = block.timestamp + timeBetweenDepositAndFinalization;\r\n    }\r\n\r\n    function realtorReviewedClosingConditions(bool accepted) public {\r\n        //  require(realtor == msg.sender, \"Only realtor can review closing conditions\");\r\n\r\n        require(\r\n            contractState == ContractState.WaitingRealtorReview,\r\n            \"Wrong contract state\"\r\n        );\r\n\r\n        if (accepted) {\r\n            closingConditionsReview = ClosingConditionsReview.Accepted;\r\n            contractState = ContractState.WaitingFinalization;\r\n        } else {\r\n            closingConditionsReview = ClosingConditionsReview.Rejected;\r\n            contractState = ContractState.Rejected;\r\n\r\n            buyer.transfer(deposit);\r\n        }\r\n    }\r\n\r\n    function buyerFinalizeTransaction() public payable {\r\n        //   require(buyer == msg.sender, \"Only buyer can finalize transaction\");\r\n\r\n        require(\r\n            contractState == ContractState.WaitingFinalization,\r\n            \"Wrong contract state\"\r\n        );\r\n\r\n         //require(msg.value + deposit == price, \"Buyer needs to pay the rest of the cost to finalize transaction\");\r\n\r\n        contractState = ContractState.Finalized;\r\n\r\n        seller.transfer(price - realtorFee);\r\n       realtor.transfer(realtorFee);\r\n        // seller.transfer(price);\r\n    }\r\n\r\n    function anyWithdrawFromTransaction() public {\r\n        require(\r\n            buyer == msg.sender || finalizeDeadline <= block.timestamp,\r\n            \"Only buyer can withdraw before transaction deadline\"\r\n        );\r\n\r\n        require(\r\n            contractState == ContractState.WaitingFinalization,\r\n            \"Wrong contract state\"\r\n        );\r\n\r\n        contractState = ContractState.Rejected;\r\n\r\n        seller.transfer(deposit - realtorFee);\r\n        realtor.transfer(realtorFee);\r\n    }\r\n}\r\n",
  "sourcePath": "C:/source/SMART-CONTRACTS/RealEstate2.0/src/contracts/HomeTransaction.sol",
  "compiler": {
    "name": "solc",
    "version": "0.5.16+commit.9c3226ce.Emscripten.clang"
  },
  "schemaVersion": "3.4.0",
  "updatedAt": "2021-06-01T15:37:41.148Z",
  "networkType": "ethereum",
  "devdoc": {
    "methods": {}
  },
  "userdoc": {
    "methods": {}
  }
}