{
  "contractName": "ControlFichaje",
  "abi": [
    {
      "inputs": [],
      "stateMutability": "nonpayable",
      "type": "constructor"
    },
    {
      "inputs": [],
      "name": "Registro",
      "outputs": [],
      "stateMutability": "nonpayable",
      "type": "function"
    },
    {
      "inputs": [],
      "name": "GetMisRegistros",
      "outputs": [
        {
          "internalType": "uint256[]",
          "name": "",
          "type": "uint256[]"
        }
      ],
      "stateMutability": "view",
      "type": "function"
    }
  ],
  "bytecode": "0x608060405234801561001057600080fd5b50336000806101000a81548173ffffffffffffffffffffffffffffffffffffffff021916908373ffffffffffffffffffffffffffffffffffffffff160217905550610449806100606000396000f3fe608060405234801561001057600080fd5b50600436106100365760003560e01c8063a1b025aa1461003b578063f35bb33014610059575b600080fd5b610043610063565b6040516100509190610336565b60405180910390f35b610061610249565b005b60606000600160003373ffffffffffffffffffffffffffffffffffffffff1673ffffffffffffffffffffffffffffffffffffffff1681526020019081526020016000208054905067ffffffffffffffff8111156100e9577f4e487b7100000000000000000000000000000000000000000000000000000000600052604160045260246000fd5b6040519080825280602002602001820160405280156101175781602001602082028036833780820191505090505b50905060005b600160003373ffffffffffffffffffffffffffffffffffffffff1673ffffffffffffffffffffffffffffffffffffffff1681526020019081526020016000208054905081101561024157600160003373ffffffffffffffffffffffffffffffffffffffff1673ffffffffffffffffffffffffffffffffffffffff16815260200190815260200160002081815481106101de577f4e487b7100000000000000000000000000000000000000000000000000000000600052603260045260246000fd5b9060005260206000200154828281518110610222577f4e487b7100000000000000000000000000000000000000000000000000000000600052603260045260246000fd5b60200260200101818152505080806102399061039b565b91505061011d565b508091505090565b600160003373ffffffffffffffffffffffffffffffffffffffff1673ffffffffffffffffffffffffffffffffffffffff168152602001908152602001600020429080600181540180825580915050600190039060005260206000200160009091909190915055565b60006102bd8383610327565b60208301905092915050565b60006102d482610368565b6102de8185610380565b93506102e983610358565b8060005b8381101561031a57815161030188826102b1565b975061030c83610373565b9250506001810190506102ed565b5085935050505092915050565b61033081610391565b82525050565b6000602082019050818103600083015261035081846102c9565b905092915050565b6000819050602082019050919050565b600081519050919050565b6000602082019050919050565b600082825260208201905092915050565b6000819050919050565b60006103a682610391565b91507fffffffffffffffffffffffffffffffffffffffffffffffffffffffffffffffff8214156103d9576103d86103e4565b5b600182019050919050565b7f4e487b7100000000000000000000000000000000000000000000000000000000600052601160045260246000fdfea2646970667358221220868f713f597092f6d1df7a170f035630ee3d823cd9ce862b0196070a8e578f0d64736f6c63430008000033",
  "immutableReferences": {},
  "source": "// SPDX-License-Identifier: MIT\r\npragma solidity >=0.4.22 <0.9.0;\r\n\r\ncontract ControlFichaje{    \r\n    \r\n    address private propietario;\r\n    mapping (address => uint[]) private registrosEmpleados;\r\n    \r\n    constructor() {        \r\n        propietario = msg.sender;\r\n    }\r\n    \r\n   function Registro() public{\r\n       registrosEmpleados[msg.sender].push(block.timestamp);\r\n   }   \r\n  \r\n   function GetMisRegistros() public view returns (uint[] memory){\r\n       \r\n       uint[] memory result = new uint[] (registrosEmpleados[msg.sender].length);\r\n       for (uint i = 0;i < registrosEmpleados[msg.sender].length; i++) {\r\n           result[i] = registrosEmpleados[msg.sender][i];    \r\n       }\r\n        \r\n        return result;\r\n    }    \r\n}",
  "sourcePath": "E:/source/SMART-CONTRACTS/Control-Fichaje/src/contracts/ControlFichaje.sol",
  "compiler": {
    "name": "solc",
    "version": "0.8.0+commit.c7dfd78e.Emscripten.clang"
  },
  "schemaVersion": "3.4.1",
  "updatedAt": "2021-07-04T19:23:29.726Z",
  "devdoc": {
    "kind": "dev",
    "methods": {},
    "version": 1
  },
  "userdoc": {
    "kind": "user",
    "methods": {},
    "version": 1
  }
}