{
  "contractName": "Crowdfunding",
  "abi": [
    {
      "inputs": [],
      "payable": false,
      "stateMutability": "nonpayable",
      "type": "constructor"
    },
    {
      "constant": true,
      "inputs": [],
      "name": "apellido",
      "outputs": [
        {
          "internalType": "string",
          "name": "",
          "type": "string"
        }
      ],
      "payable": false,
      "stateMutability": "view",
      "type": "function"
    },
    {
      "constant": true,
      "inputs": [],
      "name": "aportacion",
      "outputs": [
        {
          "internalType": "uint256",
          "name": "",
          "type": "uint256"
        }
      ],
      "payable": false,
      "stateMutability": "view",
      "type": "function"
    },
    {
      "constant": true,
      "inputs": [],
      "name": "artista",
      "outputs": [
        {
          "internalType": "address payable",
          "name": "",
          "type": "address"
        }
      ],
      "payable": false,
      "stateMutability": "view",
      "type": "function"
    },
    {
      "constant": true,
      "inputs": [],
      "name": "balance",
      "outputs": [
        {
          "internalType": "uint256",
          "name": "",
          "type": "uint256"
        }
      ],
      "payable": false,
      "stateMutability": "view",
      "type": "function"
    },
    {
      "constant": true,
      "inputs": [],
      "name": "elMecenas",
      "outputs": [
        {
          "internalType": "address",
          "name": "",
          "type": "address"
        }
      ],
      "payable": false,
      "stateMutability": "view",
      "type": "function"
    },
    {
      "constant": true,
      "inputs": [],
      "name": "name",
      "outputs": [
        {
          "internalType": "string",
          "name": "",
          "type": "string"
        }
      ],
      "payable": false,
      "stateMutability": "view",
      "type": "function"
    },
    {
      "constant": true,
      "inputs": [],
      "name": "nombre",
      "outputs": [
        {
          "internalType": "string",
          "name": "",
          "type": "string"
        }
      ],
      "payable": false,
      "stateMutability": "view",
      "type": "function"
    },
    {
      "constant": true,
      "inputs": [],
      "name": "objetivo",
      "outputs": [
        {
          "internalType": "uint256",
          "name": "",
          "type": "uint256"
        }
      ],
      "payable": false,
      "stateMutability": "view",
      "type": "function"
    },
    {
      "constant": false,
      "inputs": [
        {
          "internalType": "string",
          "name": "_nombre_mecenas",
          "type": "string"
        },
        {
          "internalType": "string",
          "name": "_apellido_mecenas",
          "type": "string"
        },
        {
          "internalType": "uint256",
          "name": "_aportacion_mecenas",
          "type": "uint256"
        }
      ],
      "name": "setMecenas",
      "outputs": [],
      "payable": true,
      "stateMutability": "payable",
      "type": "function"
    },
    {
      "constant": true,
      "inputs": [],
      "name": "getMecenas",
      "outputs": [
        {
          "internalType": "string",
          "name": "",
          "type": "string"
        },
        {
          "internalType": "string",
          "name": "",
          "type": "string"
        }
      ],
      "payable": false,
      "stateMutability": "view",
      "type": "function"
    }
  ],
  "bytecode": "0x6080604052680ad78ebc5ac620000060035573f2bbd81008bed9ff93f8bf5db81a0525e5ddb769600760006101000a81548173ffffffffffffffffffffffffffffffffffffffff021916908373ffffffffffffffffffffffffffffffffffffffff16021790555034801561007257600080fd5b506040518060400160405280601d81526020017f5061736172656c61206465207061676f2043726f776466756e64696e67000000815250600090805190602001906100be929190610105565b5033600860006101000a81548173ffffffffffffffffffffffffffffffffffffffff021916908373ffffffffffffffffffffffffffffffffffffffff1602179055506101aa565b828054600181600116156101000203166002900490600052602060002090601f016020900481019282601f1061014657805160ff1916838001178555610174565b82800160010185558215610174579182015b82811115610173578251825591602001919060010190610158565b5b5090506101819190610185565b5090565b6101a791905b808211156101a357600081600090555060010161018b565b5090565b90565b610ae7806101b96000396000f3fe6080604052600436106100915760003560e01c8063a8dc86f711610059578063a8dc86f714610465578063b69ef8a814610490578063bc7b35b2146104bb578063d64be55d1461054b578063d925dbbe1461057657610091565b806306fdde031461009657806329ffcce8146101265780636b43da181461017d57806377f0e6bf146102d9578063972a8576146103d5575b600080fd5b3480156100a257600080fd5b506100ab6105cd565b6040518080602001828103825283818151815260200191508051906020019080838360005b838110156100eb5780820151818401526020810190506100d0565b50505050905090810190601f1680156101185780820380516001836020036101000a031916815260200191505b509250505060405180910390f35b34801561013257600080fd5b5061013b61066b565b604051808273ffffffffffffffffffffffffffffffffffffffff1673ffffffffffffffffffffffffffffffffffffffff16815260200191505060405180910390f35b6102d76004803603606081101561019357600080fd5b81019080803590602001906401000000008111156101b057600080fd5b8201836020820111156101c257600080fd5b803590602001918460018302840111640100000000831117156101e457600080fd5b91908080601f016020809104026020016040519081016040528093929190818152602001838380828437600081840152601f19601f8201169050808301925050505050505091929192908035906020019064010000000081111561024757600080fd5b82018360208201111561025957600080fd5b8035906020019184600183028401116401000000008311171561027b57600080fd5b91908080601f016020809104026020016040519081016040528093929190818152602001838380828437600081840152601f19601f82011690508083019250505050505050919291929080359060200190929190505050610691565b005b3480156102e557600080fd5b506102ee610752565b604051808060200180602001838103835285818151815260200191508051906020019080838360005b83811015610332578082015181840152602081019050610317565b50505050905090810190601f16801561035f5780820380516001836020036101000a031916815260200191505b50838103825284818151815260200191508051906020019080838360005b8381101561039857808201518184015260208101905061037d565b50505050905090810190601f1680156103c55780820380516001836020036101000a031916815260200191505b5094505050505060405180910390f35b3480156103e157600080fd5b506103ea610899565b6040518080602001828103825283818151815260200191508051906020019080838360005b8381101561042a57808201518184015260208101905061040f565b50505050905090810190601f1680156104575780820380516001836020036101000a031916815260200191505b509250505060405180910390f35b34801561047157600080fd5b5061047a610937565b6040518082815260200191505060405180910390f35b34801561049c57600080fd5b506104a561093d565b6040518082815260200191505060405180910390f35b3480156104c757600080fd5b506104d0610943565b6040518080602001828103825283818151815260200191508051906020019080838360005b838110156105105780820151818401526020810190506104f5565b50505050905090810190601f16801561053d5780820380516001836020036101000a031916815260200191505b509250505060405180910390f35b34801561055757600080fd5b506105606109e1565b6040518082815260200191505060405180910390f35b34801561058257600080fd5b5061058b6109e7565b604051808273ffffffffffffffffffffffffffffffffffffffff1673ffffffffffffffffffffffffffffffffffffffff16815260200191505060405180910390f35b60008054600181600116156101000203166002900480601f0160208091040260200160405190810160405280929190818152602001828054600181600116156101000203166002900480156106635780601f1061063857610100808354040283529160200191610663565b820191906000526020600020905b81548152906001019060200180831161064657829003601f168201915b505050505081565b600860009054906101000a900473ffffffffffffffffffffffffffffffffffffffff1681565b82600190805190602001906106a7929190610a0d565b5081600290805190602001906106be929190610a0d565b508060068190555034600454016004819055506004546005819055506000600481905550600760009054906101000a900473ffffffffffffffffffffffffffffffffffffffff1673ffffffffffffffffffffffffffffffffffffffff166108fc6005549081150290604051600060405180830381858888f1935050505015801561074c573d6000803e3d6000fd5b50505050565b60608060016002818054600181600116156101000203166002900480601f0160208091040260200160405190810160405280929190818152602001828054600181600116156101000203166002900480156107ee5780601f106107c3576101008083540402835291602001916107ee565b820191906000526020600020905b8154815290600101906020018083116107d157829003601f168201915b50505050509150808054600181600116156101000203166002900480601f01602080910402602001604051908101604052809291908181526020018280546001816001161561010002031660029004801561088a5780601f1061085f5761010080835404028352916020019161088a565b820191906000526020600020905b81548152906001019060200180831161086d57829003601f168201915b50505050509050915091509091565b60028054600181600116156101000203166002900480601f01602080910402602001604051908101604052809291908181526020018280546001816001161561010002031660029004801561092f5780601f106109045761010080835404028352916020019161092f565b820191906000526020600020905b81548152906001019060200180831161091257829003601f168201915b505050505081565b60035481565b60045481565b60018054600181600116156101000203166002900480601f0160208091040260200160405190810160405280929190818152602001828054600181600116156101000203166002900480156109d95780601f106109ae576101008083540402835291602001916109d9565b820191906000526020600020905b8154815290600101906020018083116109bc57829003601f168201915b505050505081565b60065481565b600760009054906101000a900473ffffffffffffffffffffffffffffffffffffffff1681565b828054600181600116156101000203166002900490600052602060002090601f016020900481019282601f10610a4e57805160ff1916838001178555610a7c565b82800160010185558215610a7c579182015b82811115610a7b578251825591602001919060010190610a60565b5b509050610a899190610a8d565b5090565b610aaf91905b80821115610aab576000816000905550600101610a93565b5090565b9056fea265627a7a723158203cb81c5c8bc3c8d9aa546aba5cb04785df78c448e6538e0d907d209afb46aaa664736f6c63430005100032",
  "source": "// SPDX-License-Identifier: MIT\r\npragma solidity >=0.4.22 <0.9.0;\r\n\r\ncontract Crowdfunding {\r\n    string public name;\r\n    string public nombre;\r\n    string public apellido;\r\n    uint256 public objetivo = 200 ether;\r\n    uint256 public balance;\r\n    uint256 totalRecaudado;\r\n    uint256 public aportacion;\r\n    address payable public artista = 0xF2BbD81008BEd9Ff93f8BF5db81A0525E5DDb769;\r\n    address public elMecenas;\r\n\r\n    constructor() public{\r\n        name = \"Pasarela de pago Crowdfunding\";\r\n        elMecenas = msg.sender;\r\n    }\r\n\r\n    function setMecenas(string memory _nombre_mecenas,string memory _apellido_mecenas, uint256 _aportacion_mecenas) public payable {        \r\n        nombre = _nombre_mecenas;\r\n        apellido = _apellido_mecenas;\r\n        aportacion= _aportacion_mecenas;\r\n        // require(msg.value > 1 ether);       \r\n        balance = balance + msg.value;\r\n        // = balance + aportacion;\r\n        //balance = balance + 1 ether;\r\n        \r\n        //if (balance >= objetivo) {\r\n            //payOut();\r\n            totalRecaudado = balance;\r\n            balance = 0;\r\n            artista.transfer(totalRecaudado);\r\n        //}\r\n    }\r\n\r\n    function getMecenas() public view returns (string memory, string memory) {\r\n        return (nombre, apellido);\r\n    }\r\n\r\n    function payOut() private {\r\n        totalRecaudado = balance;\r\n        balance = 0;\r\n        artista.transfer(totalRecaudado);\r\n    }\r\n}\r\n",
  "sourcePath": "C:/source/crowdfunding2/src/contracts/Crowdfunding.sol",
  "compiler": {
    "name": "solc",
    "version": "0.5.16+commit.9c3226ce.Emscripten.clang"
  },
  "schemaVersion": "3.4.0",
  "updatedAt": "2021-05-27T12:17:04.908Z",
  "networkType": "ethereum",
  "devdoc": {
    "methods": {}
  },
  "userdoc": {
    "methods": {}
  }
}