{
  "contractName": "UsersContract",
  "abi": [
    {
      "inputs": [],
      "stateMutability": "nonpayable",
      "type": "constructor"
    },
    {
      "anonymous": false,
      "inputs": [
        {
          "indexed": false,
          "internalType": "address",
          "name": "",
          "type": "address"
        },
        {
          "indexed": false,
          "internalType": "string",
          "name": "",
          "type": "string"
        }
      ],
      "name": "onUserJoined",
      "type": "event"
    },
    {
      "inputs": [],
      "name": "nameContract",
      "outputs": [
        {
          "internalType": "string",
          "name": "",
          "type": "string"
        }
      ],
      "stateMutability": "view",
      "type": "function",
      "constant": true
    },
    {
      "inputs": [
        {
          "internalType": "string",
          "name": "_name",
          "type": "string"
        },
        {
          "internalType": "string",
          "name": "_surName",
          "type": "string"
        }
      ],
      "name": "join",
      "outputs": [],
      "stateMutability": "nonpayable",
      "type": "function"
    },
    {
      "inputs": [
        {
          "internalType": "address",
          "name": "_address",
          "type": "address"
        }
      ],
      "name": "getUser",
      "outputs": [
        {
          "internalType": "string",
          "name": "",
          "type": "string"
        },
        {
          "internalType": "string",
          "name": "",
          "type": "string"
        }
      ],
      "stateMutability": "view",
      "type": "function",
      "constant": true
    },
    {
      "inputs": [],
      "name": "totalUsers",
      "outputs": [
        {
          "internalType": "uint256",
          "name": "",
          "type": "uint256"
        }
      ],
      "stateMutability": "view",
      "type": "function",
      "constant": true
    }
  ],
  "bytecode": "0x608060405234801561001057600080fd5b506040518060400160405280601481526020017f526567697374726f206465205573756172696f730000000000000000000000008152506003908051906020019061005c929190610062565b50610166565b82805461006e90610105565b90600052602060002090601f01602090048101928261009057600085556100d7565b82601f106100a957805160ff19168380011785556100d7565b828001600101855582156100d7579182015b828111156100d65782518255916020019190600101906100bb565b5b5090506100e491906100e8565b5090565b5b808211156101015760008160009055506001016100e9565b5090565b6000600282049050600182168061011d57607f821691505b6020821081141561013157610130610137565b5b50919050565b7f4e487b7100000000000000000000000000000000000000000000000000000000600052602260045260246000fd5b610a49806101756000396000f3fe608060405234801561001057600080fd5b506004361061004c5760003560e01c806329803b21146100515780636f77926b1461006d578063bff1f9e11461009e578063f0eb62cf146100bc575b600080fd5b61006b6004803603810190610066919061064e565b6100da565b005b61008760048036038101906100829190610625565b61027a565b604051610095929190610803565b60405180910390f35b6100a6610414565b6040516100b3919061083a565b60405180910390f35b6100c4610421565b6040516100d191906107e1565b60405180910390f35b6100e3336104af565b156100ed57600080fd5b60008060003373ffffffffffffffffffffffffffffffffffffffff1673ffffffffffffffffffffffffffffffffffffffff168152602001908152602001600020905082816000019080519060200190610147929190610505565b5081816001019080519060200190610160929190610505565b5060018060003373ffffffffffffffffffffffffffffffffffffffff1673ffffffffffffffffffffffffffffffffffffffff16815260200190815260200160002060006101000a81548160ff0219169083151502179055506002339080600181540180825580915050600190039060005260206000200160009091909190916101000a81548173ffffffffffffffffffffffffffffffffffffffff021916908373ffffffffffffffffffffffffffffffffffffffff1602179055507fcb377c658a30311994ed849c5202a7876366b3353f8a9e009226ccd6411935b3338484604051602001610250929190610782565b60405160208183030381529060405260405161026d9291906107b1565b60405180910390a1505050565b606080610286336104af565b61028f57600080fd5b60008060008573ffffffffffffffffffffffffffffffffffffffff1673ffffffffffffffffffffffffffffffffffffffff1681526020019081526020016000206040518060400160405290816000820180546102ea9061095b565b80601f01602080910402602001604051908101604052809291908181526020018280546103169061095b565b80156103635780601f1061033857610100808354040283529160200191610363565b820191906000526020600020905b81548152906001019060200180831161034657829003601f168201915b5050505050815260200160018201805461037c9061095b565b80601f01602080910402602001604051908101604052809291908181526020018280546103a89061095b565b80156103f55780601f106103ca576101008083540402835291602001916103f5565b820191906000526020600020905b8154815290600101906020018083116103d857829003601f168201915b5050505050815250509050806000015181602001519250925050915091565b6000600280549050905090565b6003805461042e9061095b565b80601f016020809104026020016040519081016040528092919081815260200182805461045a9061095b565b80156104a75780601f1061047c576101008083540402835291602001916104a7565b820191906000526020600020905b81548152906001019060200180831161048a57829003601f168201915b505050505081565b6000600160008373ffffffffffffffffffffffffffffffffffffffff1673ffffffffffffffffffffffffffffffffffffffff16815260200190815260200160002060009054906101000a900460ff169050919050565b8280546105119061095b565b90600052602060002090601f016020900481019282610533576000855561057a565b82601f1061054c57805160ff191683800117855561057a565b8280016001018555821561057a579182015b8281111561057957825182559160200191906001019061055e565b5b509050610587919061058b565b5090565b5b808211156105a457600081600090555060010161058c565b5090565b60006105bb6105b684610886565b610855565b9050828152602081018484840111156105d357600080fd5b6105de848285610919565b509392505050565b6000813590506105f5816109fc565b92915050565b600082601f83011261060c57600080fd5b813561061c8482602086016105a8565b91505092915050565b60006020828403121561063757600080fd5b6000610645848285016105e6565b91505092915050565b6000806040838503121561066157600080fd5b600083013567ffffffffffffffff81111561067b57600080fd5b610687858286016105fb565b925050602083013567ffffffffffffffff8111156106a457600080fd5b6106b0858286016105fb565b9150509250929050565b6106c3816108dd565b82525050565b60006106d4826108b6565b6106de81856108c1565b93506106ee818560208601610928565b6106f7816109eb565b840191505092915050565b600061070d826108b6565b61071781856108d2565b9350610727818560208601610928565b80840191505092915050565b60006107406001836108d2565b91507f20000000000000000000000000000000000000000000000000000000000000006000830152600182019050919050565b61077c8161090f565b82525050565b600061078e8285610702565b915061079982610733565b91506107a58284610702565b91508190509392505050565b60006040820190506107c660008301856106ba565b81810360208301526107d881846106c9565b90509392505050565b600060208201905081810360008301526107fb81846106c9565b905092915050565b6000604082019050818103600083015261081d81856106c9565b9050818103602083015261083181846106c9565b90509392505050565b600060208201905061084f6000830184610773565b92915050565b6000604051905081810181811067ffffffffffffffff8211171561087c5761087b6109bc565b5b8060405250919050565b600067ffffffffffffffff8211156108a1576108a06109bc565b5b601f19601f8301169050602081019050919050565b600081519050919050565b600082825260208201905092915050565b600081905092915050565b60006108e8826108ef565b9050919050565b600073ffffffffffffffffffffffffffffffffffffffff82169050919050565b6000819050919050565b82818337600083830152505050565b60005b8381101561094657808201518184015260208101905061092b565b83811115610955576000848401525b50505050565b6000600282049050600182168061097357607f821691505b602082108114156109875761098661098d565b5b50919050565b7f4e487b7100000000000000000000000000000000000000000000000000000000600052602260045260246000fd5b7f4e487b7100000000000000000000000000000000000000000000000000000000600052604160045260246000fd5b6000601f19601f8301169050919050565b610a05816108dd565b8114610a1057600080fd5b5056fea2646970667358221220946c536de4103638e94ddfb4ce370ce22d7ee43aa67988543179d8767586658064736f6c63430008000033",
  "immutableReferences": {},
  "source": "// SPDX-License-Identifier: MIT\r\npragma solidity >=0.4.22 <0.9.0;\r\n\r\ncontract UsersContract {\r\n    struct User {\r\n        string name;\r\n        string surName;\r\n    }\r\n\r\n    mapping(address => User) private users;\r\n    mapping(address => bool) private joinedUsers;\r\n    address[] total;\r\n    event onUserJoined(address, string);\r\n\r\n    string public nameContract;\r\n\r\n    constructor() {\r\n        nameContract = \"Registro de Usuarios\";\r\n    }\r\n\r\n    function join(string memory _name, string memory _surName) public {\r\n        require(!userJoined(msg.sender));\r\n        User storage user = users[msg.sender];\r\n        user.name = _name;\r\n        user.surName = _surName;\r\n        joinedUsers[msg.sender] = true;\r\n        total.push(msg.sender);\r\n        emit onUserJoined(\r\n            msg.sender,\r\n            string(abi.encodePacked(_name, \" \", _surName))\r\n        );\r\n    }\r\n\r\n    function getUser(address _address)\r\n        public\r\n        view\r\n        returns (string memory, string memory)\r\n    {\r\n        require(userJoined(msg.sender));\r\n        User memory user = users[_address];\r\n        return (user.name, user.surName);\r\n    }\r\n\r\n    function userJoined(address _address) private view returns (bool) {\r\n        return joinedUsers[_address];\r\n    }\r\n\r\n    function totalUsers() public view returns (uint256) {\r\n        return total.length;\r\n    }\r\n}\r\n",
  "sourcePath": "E:/source/SMART-CONTRACTS/Users-Contract/src/contracts/UsersContract.sol",
  "compiler": {
    "name": "solc",
    "version": "0.8.0+commit.c7dfd78e.Emscripten.clang"
  },
  "schemaVersion": "3.4.1",
  "updatedAt": "2021-07-06T11:28:40.024Z",
  "networkType": "ethereum",
  "devdoc": {
    "kind": "dev",
    "methods": {},
    "version": 1
  },
  "userdoc": {
    "kind": "user",
    "methods": {},
    "version": 1
  }
}